:020000040800F2
:100000000000022021260008791300087B13000855
:100010007D1300087F130008811300080000000012
:100020000000000000000000000000008313000832
:1000300085130008000000008713000889130008DA
:100040007126000871260008712600087126000834
:100050007126000871260008712600087126000824
:100060007126000871260008712600087126000814
:100070007126000871260008712600087126000804
:1000800071260008712600087126000871260008F4
:1000900071260008712600087126000871260008E4
:1000A00071260008712600087126000871260008D4
:1000B00071260008712600087126000871260008C4
:1000C00071260008712600087126000871260008B4
:1000D00071260008712600087126000871260008A4
:1000E0007126000871260008712600087126000894
:1000F0007126000871260008712600087126000884
:100100007126000871260008712600087126000873
:100110007126000871260008712600087126000863
:100120007126000871260008712600087126000853
:100130007126000871260008712600087126000843
:100140007126000871260008712600087126000833
:100150007126000871260008712600087126000823
:100160007126000871260008712600087126000813
:1001700071260008712600087126000800000000A2
:08018000712600087126000839
:1001900010B5054C237833B9044B13B10448AFF3C1
:1001A00000800123237010BDEC010020000000003E
:1001B000F047000808B5034B1BB103490348AFF3F0
:1001C000008008BD00000000F0010020F04700089A
:1001D000034613F8012B002AFBD1181A0138704787
:1001E00001F0FF01102A2BDB10F0070F08D010F8E8
:1001F000013B013A8B422DD010F0070F42B3F6D1EC
:10020000F0B441EA012141EA014122F007047FF004
:1002100000070023F0E80256083C85EA010586EA5B
:10022000010685FA47F5A3FA87F586FA47F6A5FA97
:1002300087F68EB9EED1F0BC01F0FF0102F00702A3
:1002400032B110F8013B013A83EA010313B1F8D14E
:100250000020704701387047002D06BF354603382F
:10026000073815F0010F07D1013015F4807F02BF68
:10027000013015F4C03F0130F0BC0138704700BFB9
:1002800081F0004102E000BF83F0004330B54FEA47
:1002900041044FEA430594EA050F08BF90EA020FB4
:1002A0001FBF54EA000C55EA020C7FEA645C7FEA47
:1002B000655C00F0E2804FEA5454D4EB5555B8BF6A
:1002C0006D420CDD2C4480EA020281EA030382EADB
:1002D000000083EA010180EA020281EA0303362D6D
:1002E00088BF30BD11F0004F4FEA01314FF4801C40
:1002F0004CEA113102D0404261EB410113F0004F52
:100300004FEA03334CEA133302D0524263EB430308
:1003100094EA050F00F0A780A4F10104D5F1200EA6
:100320000DDB02FA0EFC22FA05F2801841F1000101
:1003300003FA0EF2801843FA05F359410EE0A5F1D5
:1003400020050EF1200E012A03FA0EFC28BF4CF006
:10035000020C43FA05F3C01851EBE37101F00045BC
:1003600007D54FF0000EDCF1000C7EEB00006EEBC9
:100370000101B1F5801F1BD3B1F5001F0CD3490853
:100380005FEA30004FEA3C0C04F101044FEA4452AA
:1003900012F5800F80F09A80BCF1004F08BF5FEA31
:1003A000500C50F1000041EB045141EA050130BD11
:1003B0005FEA4C0C404141EB010111F4801FA4F1B4
:1003C0000104E9D191F0000F04BF01460020B1FA09
:1003D00081F308BF2033A3F10B03B3F120020CDA41
:1003E0000C3208DD02F1140CC2F10C0201FA0CF01F
:1003F00021FA02F10CE002F11402D8BFC2F1200C84
:1004000001FA02F120FA0CFCDCBF41EA0C01904039
:10041000E41AA2BF01EB0451294330BD6FEA040482
:100420001F3C1CDA0C340EDC04F11404C4F120026D
:1004300020FA04F001FA02F340EA030021FA04F37F
:1004400045EA030130BDC4F10C04C4F1200220FAD6
:1004500002F001FA04F340EA0300294630BD21FA14
:1004600004F0294630BD94F0000F83F4801306BFDA
:1004700081F480110134013D4EE77FEA645C18BFCE
:100480007FEA655C29D094EA050F08BF90EA020F65
:1004900005D054EA000C04BF1946104630BD91EA5D
:1004A000030F1EBF0021002030BD5FEA545C05D160
:1004B0004000494128BF41F0004130BD14F580049F
:1004C0003CBF01F5801130BD01F0004545F0FE4113
:1004D00041F470014FF0000030BD7FEA645C1ABF48
:1004E000194610467FEA655C1CBF0B46024650EA7F
:1004F000013406BF52EA033591EA030F41F40021AB
:1005000030BD00BF90F0000F04BF0021704730B530
:100510004FF4806404F132044FF000054FF0000105
:1005200050E700BF90F0000F04BF0021704730B5C6
:100530004FF4806404F1320410F0004548BF40429B
:100540004FF000013EE700BF42004FEAE2014FEAF0
:1005500031014FEA02701FBF12F07F4393F07F4FCB
:1005600081F06051704792F0000F14BF93F07F4FFD
:10057000704730B54FF4607401F0004521F0004140
:1005800020E700BF50EA010208BF704730B54FF0C6
:1005900000050AE050EA010208BF704730B511F0CB
:1005A000004502D5404261EB41014FF4806404F103
:1005B00032045FEA915C3FF4DCAE4FF003025FEA85
:1005C000DC0C18BF03325FEADC0C18BF033202EB0D
:1005D000DC02C2F1200300FA03FC20FA02F001FA67
:1005E00003FE40EA0E0021FA02F11444C1E600BF06
:1005F00070B54FF0FF0C4CF4E06C1CEA11541DBFB9
:100600001CEA135594EA0C0F95EA0C0F00F0DEF883
:100610002C4481EA030621EA4C5123EA4C5350EA68
:10062000013518BF52EA033541F4801143F48013B9
:1006300038D0A0FB02CE4FF00005E1FB02E506F04A
:100640000042E0FB03E54FF00006E1FB03569CF09F
:10065000000F18BF4EF0010EA4F1FF04B6F5007FA5
:1006600064F5407404D25FEA4E0E6D4146EB060617
:1006700042EAC62141EA55514FEAC52040EA5E50A0
:100680004FEACE2EB4F1FD0C88BFBCF5E06F1ED84A
:10069000BEF1004F08BF5FEA500E50F1000041EB81
:1006A000045170BD06F0004646EA010140EA02002E
:1006B00081EA0301B4EB5C04C2BFD4EB0C0541EA50
:1006C000045170BD41F480114FF0000E013C00F365
:1006D000AB8014F1360FDEBF002001F0004170BD89
:1006E000C4F10004203C35DA0C341BDC04F11404A2
:1006F000C4F1200500FA05F320FA04F001FA05F22E
:1007000040EA020001F0004221F0004110EBD370FA
:1007100021FA04F642EB06015EEA430E08BF20EA26
:10072000D37070BDC4F10C04C4F1200500FA04F3C9
:1007300020FA05F001FA04F240EA020001F000415B
:1007400010EBD37041F100015EEA430E08BF20EACE
:10075000D37070BDC4F1200500FA05F24EEA020E16
:1007600020FA04F301FA05F243EA020321FA04F045
:1007700001F0004121FA04F220EA020000EBD370FC
:100780005EEA430E08BF20EAD37070BD94F0000FFC
:100790000FD101F00046400041EB010111F4801F30
:1007A00008BF013CF7D041EA060195F0000F18BFE1
:1007B000704703F00046520043EB030313F4801F1D
:1007C00008BF013DF7D043EA0603704794EA0C0FD7
:1007D0000CEA135518BF95EA0C0F0CD050EA4106ED
:1007E00018BF52EA4306D1D181EA030101F000416A
:1007F0004FF0000070BD50EA410606BF1046194692
:1008000052EA430619D094EA0C0F02D150EA01369D
:1008100013D195EA0C0F05D152EA03361CBF1046DE
:1008200019460AD181EA030101F0004141F0FE417D
:1008300041F470014FF0000070BD41F0FE4141F401
:10084000780170BD70B54FF0FF0C4CF4E06C1CEA01
:1008500011541DBF1CEA135594EA0C0F95EA0C0FB6
:1008600000F0A7F8A4EB050481EA030E52EA033571
:100870004FEA013100F088804FEA03334FF0805592
:1008800045EA131343EA12634FEA022245EA1115BF
:1008900045EA10654FEA00260EF000419D4208BF70
:1008A000964244F1FD0404F5407402D25B084FEA1D
:1008B0003202B61A65EB03055B084FEA32024FF4C9
:1008C00080104FF4002CB6EB020E75EB030E22BF26
:1008D000B61A754640EA0C005B084FEA3202B6EBE6
:1008E000020E75EB030E22BFB61A754640EA5C0095
:1008F0005B084FEA3202B6EB020E75EB030E22BF25
:10090000B61A754640EA9C005B084FEA3202B6EB25
:10091000020E75EB030E22BFB61A754640EADC00E4
:1009200055EA060E18D04FEA051545EA16754FEA46
:1009300006164FEAC30343EA52734FEAC2025FEA64
:100940001C1CC0D111F4801F0BD141EA00014FF0F3
:1009500000004FF0004CB6E711F4801F04BF0143C4
:100960000020B4F1FD0C88BFBCF5E06F3FF6AFAEE0
:10097000B5EB030C04BFB6EB020C5FEA500C50F170
:10098000000041EB045170BD0EF0004E4EEA1131F3
:1009900014EB5C04C2BFD4EB0C0541EA045170BDFA
:1009A00041F480114FF0000E013C90E645EA060E3E
:1009B0008DE60CEA135594EA0C0F08BF95EA0C0F6C
:1009C0003FF43BAF94EA0C0F0AD150EA01347FF4B4
:1009D00034AF95EA0C0F7FF425AF104619462CE78B
:1009E00095EA0C0F06D152EA03353FF4FDAE1046EE
:1009F000194622E750EA410618BF52EA43067FF43F
:100A0000C5AE50EA41047FF40DAF52EA43057FF4CE
:100A1000EBAE12E74FF0FF3C06E000BF4FF0010CD9
:100A200002E000BF4FF0010C4DF804CD4FEA410C3D
:100A30007FEA6C5C4FEA430C18BF7FEA6C5C1BD00A
:100A400001B050EA410C0CBF52EA430C91EA030F8B
:100A500002BF90EA020F0020704710F1000F91EAE8
:100A6000030F58BF994208BF90422CBFD8176FEAB6
:100A7000E37040F0010070474FEA410C7FEA6C5C84
:100A800002D150EA013C07D14FEA430C7FEA6C5C8B
:100A9000D6D152EA033CD3D05DF8040B704700BFB7
:100AA0008446104662468C461946634600E000BF05
:100AB00001B5FFF7B7FF002848BF10F1000F01BDD7
:100AC0004DF808EDFFF7F4FF0CBF012000205DF8A2
:100AD00008FB00BF4DF808EDFFF7EAFF34BF012027
:100AE00000205DF808FB00BF4DF808EDFFF7E0FFC0
:100AF00094BF012000205DF808FB00BF4DF808ED11
:100B0000FFF7CEFF94BF012000205DF808FB00BF77
:100B10004DF808EDFFF7C4FF34BF012000205DF859
:100B200008FB00BF4FEA410C7FEA6C5C02D150EA3F
:100B3000013C0AD14FEA430C7FEA6C5C02D152EAD5
:100B4000033C02D14FF0000070474FF001007047A6
:100B50004FEA410212F5001215D211D56FF47873E5
:100B6000B3EB625212D94FEAC12343F0004343EA88
:100B7000505311F0004F23FA02F018BF4042704763
:100B80004FF00000704750EA013005D111F00040ED
:100B900008BF6FF0004070474FF00000704700BF83
:100BA0004FEA4102B2F1E04324BFB3F5001CDCF18F
:100BB000FE5C0DD901F0004C4FEAC0024CEA5070C7
:100BC000B2F1004F40EB830008BF20F001007047F6
:100BD00011F0804F21D113F13872BCBF01F00040F9
:100BE000704741F480114FEA5252C2F11802C2F12B
:100BF000200C10FA0CF320FA02F018BF40F00100AC
:100C00004FEAC1234FEAD32303FA0CFC40EA0C005D
:100C100023FA02F34FEA4303CCE77FEA625307D19A
:100C200050EA01331EBF4FF0FE4040F440007047D1
:100C300001F0004040F0FE4040F40000704700BF6B
:100C400053B94AB9002908BF00281CBF4FF0FF3133
:100C50004FF0FF3000F07AB9ADF1080C6DE904CE29
:100C600000F006F8DDF804E0DDE9022304B0704787
:100C70002DE9F0478C460D460446089E002B51D1C5
:100C80008A4217466DD9B2FA82FEBEF1000F0BD030
:100C9000CEF1200C01FA0EF520FA0CFC02FA0EF748
:100CA0004CEA050C00FA0EF44FEA174A250CBCFB7F
:100CB000FAF81FFA87F90AFB18CC45EA0C4508FB3D
:100CC00009F3AB420AD9ED1908F1FF3280F0238114
:100CD000AB4240F22081A8F102083D44ED1AA4B2D3
:100CE000B5FBFAF00AFB105544EA054400FB09F98C
:100CF000A14509D9E41900F1FF3380F00A81A1452B
:100D000040F2078102383C44A4EB090440EA084061
:100D10000021002E61D024FA0EF4002334607360A9
:100D2000BDE8F0878B4207D9002E54D0002186E819
:100D300021000846BDE8F087B3FA83F1002940F0AE
:100D40008E80AB4202D3824200F2FA80841A65EBB5
:100D500003050120AC46002E3FD086E81010BDE808
:100D6000F08712B90127B7FBF2F7B7FA87FEBEF199
:100D7000000F34D1EB1B3A0C1FFA87FC0121B3FBA7
:100D8000F2F8250C02FB183345EA03450CFB08F387
:100D9000AB4207D9ED1908F1FF3002D2AB4200F2A5
:100DA000D1808046ED1AA3B2B5FBF2F002FB1055DC
:100DB00043EA05440CFB00FCA44507D9E41900F103
:100DC000FF3302D2A44500F2B8801846A4EB0C040D
:100DD00040EA08409DE731463046BDE8F087CEF155
:100DE000200405FA0EF307FA0EF720FA04F83A0C7D
:100DF00025FA04F448EA0308B4FBF2F14FEA184577
:100E000002FB11441FFA87FC45EA044501FB0CF381
:100E1000AB4200FA0EF409D9ED1901F1FF3080F070
:100E20008A80AB4240F2878002393D44EB1A1FFAB8
:100E300088F5B3FBF2F002FB103345EA034500FBF3
:100E40000CF3AB4207D9ED1900F1FF386FD2AB427A
:100E50006DD902383D44EB1A40EA01418FE7C1F1F8
:100E6000200722FA07F88B4005FA01F448EA030349
:100E700020FA07FE4FEA134CFD404EEA040EB5FB84
:100E8000FCF94FEA1E440CFB19551FFA83F844EA9B
:100E9000054509FB08F4AC4202FA01F200FA01FA36
:100EA00008D9ED1809F1FF3043D2AC4241D9A9F17C
:100EB00002091D442D1B1FFA8EFEB5FBFCF00CFB36
:100EC00010554EEA054400FB08F8A04507D9E41880
:100ED00000F1FF3529D2A04527D902381C4440EA49
:100EE0000940A4EB0804A0FB02894C45C6464D46C8
:100EF00015D312D056B1BAEB0E0364EB050404FA15
:100F000007F7CB401F43CC40376074600021BDE839
:100F1000F0871846F8E69046E0E6C245EAD2B8EB1C
:100F2000020E69EB03050138E4E72846D7E740469F
:100F300091E78146BEE7014678E702383C4445E741
:100F4000084608E7A8F102083D442BE7704700BFB8
:100F50009FED177ADFED177AE0EE077A1FB5B1EE55
:100F6000007A67EE877A9FED147A144867EE877AE5
:100F7000C021FCEEE77A17EE903A1A0A8DF8093094
:100F8000B0238DF80A3010238DF80B3000238DF834
:100F90000C304FF0FF338DF80820009302AA052390
:100FA00000F086FE642000F0A3FB05B05DF804FBB2
:100FB0000024744900BA5B4800000038580600203D
:100FC00000B589B08DED000B094A142103A802F089
:100FD00009F80521012000F035FB064A012306CA65
:100FE00003A800F019FB00F019FA09B05DF804FB42
:100FF000084800080C00002030B595B030220021D0
:1010000008A801F07BFB0021142203A801F076FB65
:1010100000241D4B01941A6C42F080521A641B6C20
:1010200003F080530193019B184B02941A6842F419
:1010300080421A601B6803F480430293029B0123E1
:1010400008934FF4803309934FF480030F930823E0
:1010500010934FF4A8730225119308A80423139347
:101060000E95129500F090FF0F2303934FF4A053B9
:10107000069305214FF4805303A804950594079324
:1010800001F032F915B030BD003802400070004068
:101090002DE9F0476A4F6B4D3E88DFF8C4A190B050
:1010A000002400F0F9FAFFF7A7FF674B01941A6BD1
:1010B000664842F001021A631A6B02F001020192C3
:1010C000019A02941A6B42F002021A631A6B02F040
:1010D00002020292029A03941A6B42F004021A630B
:1010E0001A6B02F004020392039A04941A6B42F002
:1010F00080021A631B6B564A846003F080030493DA
:10110000049B544BC46080E80C004FF4804303619F
:1011100044618461C461046200F05CFD24222146C4
:1011200007A801F0EBFA40F2FF33EB600323012242
:10113000079307A9042328460B930F9309920D9256
:10114000C5F800A06C60AC602C616C6105940694DD
:1011500001F0FAF905A928460594069401F03DFA34
:1011600028463D4D182101F069F9D5E90001FFF746
:1011700017FD0FF2BC09D9E9008900EE100AFFF74C
:10118000E7FE00F071F995ED000BFFF719FFB6B21D
:101190002346DAF8242092B23A803A8892B29642F4
:1011A00011D0032B0FD83A8892B201339642DBB2AA
:1011B00007D33A8892B2964288BF02243E88B6B2DC
:1011C000E7E70124FAE7042BE3D1012C1CD1D5E990
:1011D00000010022214BFFF77DFC38B142464B460F
:1011E000D5E90001FFF752F8C5E90001D5E9000192
:1011F000FFF7D6FC00EE100AFFF7AAFE95ED000BF4
:10120000FFF7DEFE0023C4E7022CEFD1D5E9000191
:1012100009A3D3E90023FFF77BFC0028E6D0424670
:101220004B46D5E90001FFF72FF8DDE7AFF300806B
:101230009A9999999999B93F0000000000E05540AA
:10124000080200201C06002000380240580600203A
:1012500000540040801A06000000002000005B409F
:101260000004014010B5044688B01422002103A8F0
:1012700001F044FA2268144B9A4222D103F59A33C2
:10128000002101915A6C114842F002025A645A6CD2
:1012900002F002020192019A02911A6B42F00402DA
:1012A0001A631B6B03F004030293029BC023039396
:1012B000022304930123059303A90323079300F05A
:1012C00087FA08B010BD00BF0004014000080240CA
:1012D00082B00C4B002100915A6C42F480425A6457
:1012E0005A6C02F480420092009A01911A6C42F00A
:1012F00080521A641B6C03F080530193019B02B06F
:10130000704700BF0038024030B5044689B014224F
:10131000002103A801F0F2F92268144B9A4223D16C
:10132000134C144800250195236B43F002032363FB
:10133000236B03F002030193019BC0230393122349
:101340000493012305930323069303A9042307931E
:1013500000F03EFA0295236C43F400132364236CDF
:1013600003F400130293029B09B030BD0054004007
:1013700000380240000402407047FEE7FEE7FEE747
:10138000FEE770477047704700F0A0B90F49D1F8E9
:10139000883043F47003C1F888300D4B1A68002080
:1013A00042F001021A6098601A6822F0847222F4F6
:1013B00080321A60074A5A601A6822F480221A6042
:1013C000D8604FF000638B60704700BF00ED00E015
:1013D00000380240103000247FB506AA0A2302F824
:1013E000010D029301238DE80C00782100220348AF
:1013F00000F034FD07B05DF804FB00BF5806002084
:1014000005490023021C18BF012252425A540133DD
:10141000B3F5806FF6D17047100200207FB5104EF3
:10142000104D0024A4F15000C0B2FFF7D5FF0020FA
:10143000FFF7D2FF1020FFF7CFFF64230293802332
:10144000019306EBC4130093402201237821284620
:10145000013400F003FD082CE4D104B070BD00BFDE
:10146000100200205806002008B5642000F040F962
:10147000AE20FFF7B1FF2020FFF7AEFF1020FFF7EF
:10148000ABFFB020FFF7A8FFC820FFF7A5FF0020A3
:10149000FFF7A2FF1020FFF79FFF4020FFF79CFF00
:1014A0008120FFF799FFFF20FFF796FFA120FFF7AC
:1014B00093FFA620FFF790FFA820FFF78DFF3F20A6
:1014C000FFF78AFFA420FFF787FFD320FFF784FFF1
:1014D0000020FFF781FFD520FFF77EFFF020FFF708
:1014E0007BFFD920FFF778FF2220FFF775FFDA2076
:1014F000FFF772FF1220FFF76FFFDB20FFF76CFF93
:101500002020FFF769FF8D20FFF766FF1420FFF70B
:1015100063FFAF20FFF760FF0020FFF771FFFFF7C9
:101520007DFF034B0120002258711A805A8008BDAC
:101530000A020020030630B51BD43F2919D80D4BF1
:101540001B7913B1B2FA82F25209CB088025012A25
:10155000094C01F0070105FB030004D18A40215C1E
:101560000A43225430BD01228A40215C21EA020153
:10157000215430BD0A020020100200202DE9F04F56
:1015800087B0074606A800E906009B46214B9DF858
:1015900010901C88019304EB09027F2A37DC5B88DA
:1015A0009DF811A0009303EB0A023F2A2FDCA7F15C
:1015B00020020AFB02F303930026564506D3019B43
:1015C0004C441C80384607B0BDE8F08F039B05995A
:1015D000F218002531F812300293009B03EB060845
:1015E0005FFA88F84D4501D30136E6E7029B03FA1E
:1015F00005F2130405EB040056BFBBFA8BF25A4602
:1016000052094146C0B2FFF795FF0135EAE70027CE
:10161000D8E700BF0A020020F7B58DE806006D4646
:101620001F46461E74784CB120463B4695E806009E
:10163000FFF7A4FF16F8014FA042F3D0204603B0F5
:10164000F0BD0000014B1880598070470A0200204D
:1016500038B50E4A0E4B054618784FF47A73B3FB33
:10166000F0F31068B0FBF3F000F09CF8044658B9B2
:101670000F2D09D8024629464FF0FF3000F05EF8E2
:10168000044B20461D6038BD012038BD08000020F5
:10169000140000201800002008B50B4B1A6842F413
:1016A00000721A601A6842F480621A601A6842F482
:1016B00080721A60032000F02FF80020FFF7C8FFA7
:1016C000FFF706FE002008BD003C0240034A044B21
:1016D00011681B780B441360704700BFAC060020F4
:1016E00014000020014B1868704700BFAC060020B2
:1016F00038B50446FFF7F6FF631C1CBF054B1B788B
:10170000054618BFE418FFF7EDFF401B8442FAD8E6
:1017100038BD00BF14000020074AD36823F4E063FB
:101720001B041B0C43F0BF63000243F4003300F4BE
:10173000E0600343D360704700ED00E0174B30B525
:10174000DC68C4F30224C4F10703251D042B28BF61
:101750000423062D4FF0010505FA03F303F1FF33CF
:101760008CBF033C00241940A14005FA04F4013C5D
:101770002240002842EA01024FEA0212AFBF00F104
:10178000604000F00F00064BD2B2A5BF00F56140EB
:10179000D2B21A5480F8002330BD00BF00ED00E043
:1017A00014ED00E00138B0F1807F0AD2064B074A01
:1017B0005860F02182F823100020072298601A60F8
:1017C00070470120704700BF10E000E000ED00E02E
:1017D0002DE9F04F85B00B68DFF8AC81684ADFF87F
:1017E000AC91019300234FF0010E019C0EFA03FE11
:1017F0000EEA0406B64540F0AE804C6824F01007AF
:10180000022F16D14FEAD30A00EB8A0A03F0070B26
:10181000DAF820504FEA8B0B4FF00F0C0CFA0BFC50
:1018200025EA0C0C0D6905FA0BF545EA0C05CAF81A
:1018300020504FEA430A0325D0F800B005FA0AF514
:10184000ED4304F0030C0BEA050B0CFA0AFC013F14
:101850004CEA0B0C012FC0F800C011D8876807EACA
:10186000050BCF6807FA0AFC4CEA0B07876047684C
:1018700027EA0E0EC4F300179F4047EA0E074760A1
:10188000C7683D408F6807FA0AF73D43C560E50029
:1018900061D54FF0000BCDF80CB0D8F84470394D3D
:1018A00047F48047C8F84470D8F8447007F480477C
:1018B0000397039F23F0030707F1804707F59C3741
:1018C00003F0030CD7F808A04FEA8C0C4FF00F0E72
:1018D0000EFA0CFEA8422AEA0E0E43D005F58065EA
:1018E000A84241D005F58065A8423FD005F5806546
:1018F000A8423DD005F58065A8423BD048453BD085
:1019000005F50065A84239D005F58065A84214BFE9
:101910000825072505FA0CF545EA0E05BD60156892
:10192000F74314F4803F0CBF3D40354315605568C4
:1019300014F4003F0CBF3D4035435560956814F4E6
:10194000801F0CBF3D4035439560D568A40254BF4D
:101950003D403543D5600133102B7FF444AF05B0D3
:10196000BDE8F08F5D46D5E70125D3E70225D1E735
:101970000325CFE70425CDE70525CBE70625C9E7F5
:10198000003C0140000002400038024000140240C8
:101990000268536913F480630DD06FF48063536160
:1019A0000423036420220023036380F83C3080F882
:1019B0003D2001207047184670472DE9F843044642
:1019C00017469946C1F307488EB22568B8F1010F52
:1019D0000CBF6B69AB6936EA030314BF012000201A
:1019E00008B9BDE8F8836B695A0512D52B6843F432
:1019F00000732B606FF480636B61042323642022E7
:101A00000023236384F83C3084F83D200120BDE8A6
:101A1000F8837B1CD9D04FB900232022236384F89C
:101A20003C3084F83D200320BDE8F883FFF75AFEE0
:101A3000A0EB09008742C8D2EEE72DE9F843089EE3
:101A4000044690461F46C1F307498DB22368B9F199
:101A5000010F0CBF5B699B6935EA03030CBF0123CF
:101A60000023434502D00020BDE8F8837B1CEDD065
:101A70005FB900232022236384F83C3084F83D20A2
:101A8000032084F83E30BDE8F883FFF72BFE801B6F
:101A90008742DBD2EDE770B504460D461646236853
:101AA0005B691B0601D5002070BD2046FFF770FF63
:101AB000A8B96A1CF3D065B9236C43F020032364F2
:101AC00020220023236384F83C3084F83D20032047
:101AD00070BDFFF707FE801B8542E0D2ECE70120D6
:101AE00070BD00002DE9FF41154602680B9E984627
:101AF000136843F4807313600F4600960A9B00221C
:101B00004FF001110446FFF798FF68B923680A9A5D
:101B10001C4907F0FE071F6120463346FFF74DFFC3
:101B200030B1236C042B18D0032004B0BDE8F08141
:101B3000236803905A6903929B69039332460A997A
:101B4000039B2046FFF7A7FF48B1236C042BEBD182
:101B50002268136843F4007313600120E5E7B8F1CD
:101B6000010F236802D1EDB21D61DEE72A0A1A6176
:101B70000A9932462046FFF78EFF0028E5D12368F8
:101B8000F1E700BF0200010070B504460D4616469D
:101B900023685B695B0701D5002070BD2046FFF715
:101BA000F7FEA8B96A1CF3D065B9236C43F0200393
:101BB000236420220023236384F83C3084F83D20F2
:101BC000032070BDFFF78EFD801B8542E0D2ECE75D
:101BD000012070BD70B50446002862D090F83D30F9
:101BE00003F0FF021BB980F83C20FFF78DFB226851
:101BF0002D4E2E4D242384F83D30136823F001032D
:101C0000136000F00BFC63682268B0FBF5F5B3428B
:101C100084BF4FF496716943556091BF691C4FF4BE
:101C20007A75B1FBF5F10131B342116221D85B0045
:101C3000B0FBF3F0C0F30B03032B98BF0420216A21
:101C4000E369D0610B431360E16823690B43936040
:101C5000A16963690B43D360136843F00103136008
:101C600000202023206484F83D30206384F83E0067
:101C700070BDA16849B903EB4303B0FBF3F0C0F3B7
:101C80000B0363B140F40040D9E719214B43B0FB8B
:101C9000F3F0C0F30B0313B140F44040CFE7012051
:101CA000CDE7012070BD00BFA086010040420F00BB
:101CB0002DE9FF4104461F460D469046FFF712FDF1
:101CC00094F83D30202B064604D00225284604B067
:101CD000BDE8F0810090192301225D492046FFF7FD
:101CE000ACFE0028F1D194F83C30012BEDD001235B
:101CF00084F83C3023681A68D2075EBF1A6842F045
:101D000001021A601A6822F400621A60212284F823
:101D10003D20102284F83E2000222264A2F5803269
:101D20006785E262628D2285E26AC4F82480042A13
:101D300004D0012A02D012F5803F04D11A6842F47F
:101D400080721A6002E0226B122AF7D000960A9B7A
:101D500000224FF001112046FFF76FFE28BB2369D8
:101D60002268B3F5804F12D105F0FE0515613346A8
:101D70000A9A38492046FFF720FE0546A0B9236895
:101D800003905A6903929B690393039B50E0EB1104
:101D900003F0060343F0F00313612F490A9A334618
:101DA0002046FFF70AFE48B1236C236C042B4FF04A
:101DB000000307D184F83C30012587E72368EDB2A2
:101DC0001D61D4E784F83C3003257FE732460A9949
:101DD0002046FFF760FE40B1236C042BF4D122684B
:101DE000136843F400731360E6E7616A2068228D8C
:101DF0004B1C63620B780361638D013B9BB263856F
:101E00004769531E9BB27F0723850AD54BB18B1CB4
:101E100063624B780361638D013B9BB2023A638539
:101E2000228532460A992046FFF7AEFE0028D3D11C
:101E3000238D002BCAD121680A6842F400720A601F
:101E4000202284F83D2084F83C3084F83E303DE781
:101E50000200100002000100080001002DE9F34714
:101E600004469A46884691460C9EFFF73BFC94F840
:101E70003D30202B054603D0022002B0BDE8F0879C
:101E80000090192301223E492046FFF7D6FD002885
:101E9000F2D194F83C30012BEED0012384F83C3091
:101EA00023681A68D2075EBF1A6842F001021A60FE
:101EB0001A6822F400621A60212384F83D3040231E
:101EC00084F83E300A9B63620027BDF82C302764FB
:101ED00063852C4BE362638D238501950096534601
:101EE0004A4641462046FFF7FDFD00282AD0236CD4
:101EF00084F83C70042B07D10120BEE7FFF7CBFD2F
:101F000020B1236C042B34D00320B6E7616A276824
:101F1000228D4B1C63620B783B61638D013B9BB24E
:101F200063857B69501E80B25B0720850AD548B166
:101F30008B1C63624B783B61638D013B023A9BB221
:101F400022856385238D2A4631462046002BD5D134
:101F5000FFF71AFE0028D4D12268136843F40073F7
:101F60001360202384F83D3084F83C0084F83E0060
:101F700083E72268136843F400731360BCE700BF73
:101F8000020010000000FFFF2DE9F341044618B9DC
:101F9000012002B0BDE8F0810368DD0710D423689A
:101FA000980758D423681A0700F19A8023685B07C2
:101FB00000F1B880A269002A40F019810020E8E70A
:101FC000A64B9A6802F00C02042A07D09A6802F025
:101FD0000C02082A0AD15B68590207D59F4B1B687F
:101FE0009A03DCD56368002BD9D1D1E763689B4D98
:101FF000B3F5803F11D12B6843F480332B60FFF79A
:1020000071FB964D06462B689B03C8D4FFF76AFB0D
:10201000801B6428F7D90320BBE7B3F5A02F04D1B8
:102020002B6843F480232B60E5E72A6822F4803292
:102030002A602A6822F480222A60002BDFD1FFF771
:1020400051FB06462B689F03A9D5FFF74BFB801B6E
:102050006428F7D9DFE7814B9A6812F00C0F07D09C
:102060009A6802F00C02082A11D15B685E020ED455
:102070007A4B1A68950702D5E268012A88D11A6856
:10208000216922F0F80242EAC1021A608AE7E26896
:10209000734BB2B101221A60FFF724FB6F4D064665
:1020A0002B68980707D52B68226923F0F80343EAC9
:1020B000C2032B6076E7FFF715FB801B0228EFD9E0
:1020C000A9E71A60FFF70EFB644D06462B689907D7
:1020D0007FF568AFFFF706FB801B0228F6D99AE769
:1020E0006269604B7AB101221A60FFF7FBFA5B4D1F
:1020F00006466B6F9F073FF559AFFFF7F3FA801B5A
:102100000228F6D987E71A60FFF7ECFA534D064626
:102110006B6F98077FF54AAFFFF7E4FA801B022840
:10212000F6D978E74D4B1A6C12F0805228D1019203
:102130001A6C42F080521A641B6C03F080530193B6
:10214000019B0126484D2B68D9051BD5A368434D3B
:10215000012B27D12B6F43F001032B67FFF7C2FA46
:102160003E4D074641F288382B6F9B0739D5002E2C
:102170003FF420AF394A136C23F08053136419E7FE
:102180000026DFE72B6843F480732B60FFF7AAFA81
:1021900007462B68DA05D9D4FFF7A4FAC01B02283A
:1021A000F7D938E7052B04D12B6F43F004032B67D5
:1021B000D0E72A6F22F001022A672A6F22F0040278
:1021C0002A67002BCAD1FFF78DFA41F288380746FB
:1021D0002B6F9807CBD5FFF785FAC01B4045F7D981
:1021E00019E7FFF77FFAC01B4045BDD913E71B4D28
:1021F000AB6803F00C03082B3FF4CAAE1B4E002360
:10220000022A336034D1FFF76DFA07462B68990133
:102210001ED4226AE3691343626A43EA8213E26AC4
:1022200043EA0263A26A0D4C5208013A43EA0243B0
:102230006B6001233360FFF755FA054623689A0166
:102240003FF5BCAEFFF74EFA401B0228F6D9E2E696
:10225000FFF748FAC01B0228D8D9DCE60038024054
:1022600000004742800E4742007000406000474235
:10227000FFF738FA04462B689B017FF59FAEFFF706
:1022800031FA001B0228F6D9C5E600BF134908B58C
:102290008B6803F00C03042B03D0082B03D01048E9
:1022A00008BD104808BD4A684B68496813F48003AC
:1022B00014BF0C480A48C1F3881118BF002302F06C
:1022C0003F02A1FB0001FEF7BBFC044B5B68C3F3BC
:1022D000014301335B00B0FBF3F008BD003802405E
:1022E0000024F40000127A002DE9F0410D46044666
:1022F00010B90120BDE8F081444B1A6802F00F02CA
:102300008A4228D321688F072DD4C80740D43F4B79
:102310001A6802F00F02954266D3226851076CD406
:10232000130707D53A4A2169936823F4604343EAC7
:10233000C1039360FFF7AAFF354B364A9B68C3F38E
:102340000313D35CD840344B18600020FFF780F9AA
:102350000020BDE8F081CAB21A701B6803F00F03B9
:102360009942C6D1CEE72A4B11F0040F1EBF9A68DE
:1023700042F4E0529A600E0742BF9A6842F460420B
:102380009A609A68A06822F0F00202439A60BCE763
:1023900062681F4B012A1DD11B6813F4003FA8D0AF
:1023A0001B4EB36823F003031343B360FFF79AF99E
:1023B00041F288380746B368626803F00C03B3EB58
:1023C000820FA4D0FFF78EF9C01B4045F3D903203C
:1023D000BDE8F081911E01291B6802D813F0007F2F
:1023E000DDE713F0020FDAE7EAB21A701B6803F0B8
:1023F0000F039D427FF47DAF8FE70549E0688B684E
:1024000023F4E05303438B608AE700BF003C0240A3
:10241000003802401148000808000020044B054A1B
:102420009B68C3F38223D35C034A1068D84070478B
:10243000003802402148000808000020036889B1E4
:10244000042907D01A6A22F001021A621A6A42F0BD
:1024500001021A621A6A22F010021A621A6A42F023
:10246000100206E01A6A22F001021A621A6A42F0A9
:1024700001021A621A6842F001021A6000207047D5
:102480002E4A0368904212D0B0F1804F0FD0A2F5CF
:102490007C4290420BD002F58062904207D002F558
:1024A0008062904203D002F5784290421DD14A6882
:1024B00023F070031343214A904204D1CA6823F4E5
:1024C0004073134328E0B0F1804FF7D01C4A90428C
:1024D000F4D002F580629042F0D002F58062904222
:1024E000ECD002F578429042E8D0164A9042E5D00E
:1024F00002F580629042E1D002F580629042DDD028
:10250000A2F598329042D9D002F580629042D5D09F
:1025100002F580629042D1D003608B68C3620B6881
:102520008362064B984206D003F58063984202D03E
:102530000123436170470B690363F9E70000014021
:102540000004004000400140F8B50C460546002854
:1025500041D090F8393003F0FF021BB980F83820E1
:10256000FEF780FE2946022351F8040B85F8393026
:10257000836823F007038360FFF782FF28682368DE
:1025800086688269A168076A1E43A36922F44072C3
:1025900022F0030241EA0323134323F47C4223691C
:1025A000E1691B0143EA0123E1680B43216A22F040
:1025B000FC0243EA01331343616927F0AA0267680A
:1025C000866047EA0117836117430123076285F894
:1025D00039300020F8BD0120F8BD90F83830012BCB
:1025E00010B54FF0020318D080F8393003680C683A
:1025F0005A68496822F070025A605A6822435A6049
:102600009A6822F080029A609A680A439A600123CD
:1026100080F83930002380F83830184610BD0000AB
:10262000DFF834D0002103E00C4B5B5843500431F9
:102630000B480C4B42189A42F6D30B4A02E0002397
:1026400042F8043B094B9A42F9D3FEF79FFE00F093
:1026500031F8FEF71DFD704700000220F05700081A
:1026600000000020EC010020EC010020B406002056
:10267000FEE7000008B50A4B1968024609B9094986
:1026800019601868694602448A4206D900F00CF8BD
:102690000C2303604FF0FF3008BD1A6008BD00BF77
:1026A00010060020B4060020014B1868704700BFD8
:1026B0001C00002070B50D4E0D4CA41BA41000256D
:1026C000A54209D10B4E0C4C02F092F8A41BA410A9
:1026D0000025A54205D170BD56F825309847013533
:1026E000EEE756F8253098470135F2E7E85700083D
:1026F000E8570008E8570008EC5700080244034672
:10270000934200D1704703F8011BF9E72DE9FF4719
:1027100055EC104B0D9FDDF830A0002D0E46914674
:102720001946B8BF22462B4627F02007BBBF05F14C
:1027300000431D4600232D23B8BF1446462F0B70BF
:1027400004D0452F00D10136022100E0032103AB64
:10275000019302AB00933246534645EC104B00F018
:1027600003FD472F804602D119F0010F26D0462FD6
:1027700008EB060911D198F80030302B0AD100225D
:10278000002320462946FEF79BF918B9C6F1010639
:10279000CAF80060DAF8003099440022002320468D
:1027A0002946FEF78DF938B93022039B994505D9A2
:1027B000591C03911A70F8E7CDF80C90039B0E9A00
:1027C000A3EB08034046136004B0BDE8F087F7B5FB
:1027D00003460029B8BF494203F8022BB4BF2D229B
:1027E0002B220929427020DD0DF1070217460A2627
:1027F00091FBF6F506FB15113031092D02F8011C8D
:1028000002F1FF34294609DC3031023A04F8011C98
:10281000BA421C4604D3201A03B0F0BD2246E7E7B3
:1028200012F8011B03F8011BF2E730221C46114489
:1028300004F8022B5970EEE72DE9F04F8DB00C46ED
:10284000DDF8588016461F46054601F05BFA03681E
:1028500004931846FDF7BCFC00230A93D8F8003017
:102860000590073323F0070303F1080294F818A03A
:10287000D4F800B0C8F80020D3E90023C4E912233B
:10288000D4E9128929F000430793CDF818804FF05E
:10289000FF32A54BDDE90601FEF744F9002840F0C0
:1028A000FB814FF0FF32A04BDDE90601FEF71CF97A
:1028B000002840F0F1810022002340464946FEF7FF
:1028C00009F910B12D2384F84330984B984ABAF196
:1028D000470F8CBF9046984603232BF004022361D8
:1028E00022604FF00009009733460BAA2146284684
:1028F00000F0E2F9013040F093804FF0FF300DB06E
:10290000BDE8F08F61684B1C4BF480623FD1062319
:102910006360002303930AAB029309AB009349EC75
:10292000108B0DF123032260CDF804A061682846C6
:10293000FFF7ECFE0AF0DF03472B804609D1099B25
:10294000D81C02DB6268934257DDAAF1020A5FFAE3
:102950008AFABAF1650F099934D80139524604F15F
:1029600050000991FFF733FF0A9A8318012A814624
:10297000236102DC2268D10701D5013323619DF870
:102980002330002BAFD02D2384F84330ABE7BAF1CE
:10299000670F02D0BAF1470FBBD189B1002303936F
:1029A0000AAB029309AB009349EC108B2260CDF87F
:1029B00004A00DF123032846FFF7A8FE8046BEE7DA
:1029C0000123A5E7BAF1660F19D1002963680CDD70
:1029D000216113B92268D20702D501330B44236168
:1029E000099BA3654FF00009C9E713B92268D00716
:1029F00001D50233F3E70123F1E74FF0670A099BA2
:102A00000A9A934205DB22682361D107E8D5013396
:102A1000E5E7002BD4BFC3F1020301231344DEE733
:102A200023685A0507D42369424631462846B847E9
:102A300001302BD161E7BAF1650F40F2E28000224C
:102A40000023D4E91201FEF73BF800283CD0012313
:102A5000384A31462846B84701303FF44EAF0A9B0A
:102A6000099A9A4202DB2368D8070FD5059B049A7E
:102A700031462846B84701303FF43FAF4FF00008D9
:102A800004F11A090A9B013B984512DB23689B0756
:102A900009D54FF0000804F11909E3680B9A9B1A55
:102AA0009845C0F2EE80E0680B9B9842B8BF18468C
:102AB00025E701234A4631462846B84701303FF40E
:102AC0001CAF08F10108DDE7099B002B34DC012372
:102AD000184A31462846B84701303FF40EAF099BEB
:102AE00023B90A9B13B92368D907CFD5059B049A4C
:102AF00031462846B84701303FF4FFAE4FF0000999
:102B000004F11A0A099B5B42994501DB0A9B8BE79A
:102B10000123524631462846B84701303FF4EDAE16
:102B200009F10109EEE700BFFFFFEF7F86550008BE
:102B30008A550008965500080A9AA36D9A42A8BFC4
:102B40001A46002A914638DC04F11A034FF0000BB4
:102B500029EAE9790693D4F858A0AAEB09039B4522
:102B600033DB0A9B099A9A423ADB2368DA0737D4A7
:102B70000A9B0999A3EB0A02A3EB01099145A8BF9F
:102B80009146B9F1000F33DC4FF0000829EAE979EA
:102B900004F11A0A099A0A9B9B1AA3EB09039845A8
:102BA000BFF674AF0123524631462846B84701307C
:102BB0003FF4A3AE08F10108ECE713463146424664
:102BC0002846B8470130BFD197E60123069A31461F
:102BD0002846B84701303FF490AE0BF1010BBAE73D
:102BE000059B049A31462846B8470130C0D184E697
:102BF0004B4608EB0A0231462846B8470130C3D19C
:102C00007BE60A9A012A01DCDB0737D5012342461D
:102C100031462846B84701303FF46FAE059B049A11
:102C200031462846B84701303FF467AE0022002302
:102C3000D4E91201FDF744FF58B14FF0000804F148
:102C40001A0A0A9B013B98450DDB4B4604F15002E2
:102C5000EBE60A9B08F10102013B31462846B847E2
:102C60000130F2D149E60123524631462846B847A1
:102C700001303FF442AE08F10108E2E70123424689
:102C8000EBE701234A4631462846B84701303FF476
:102C900034AE08F1010800E742464B46404649463B
:102CA000FDF740FF00283FF42DAE014B014A0EE630
:102CB0008E550008925500082DE9F04791461F46B1
:102CC0008A680B69DDF820809342B8BF1346C9F8C3
:102CD000003091F8432006460C4612B10133C9F882
:102CE00000302368990642BFD9F800300233C9F892
:102CF0000030256815F0060507D104F1190AE368CC
:102D0000D9F800209B1A9D4229DB94F843302268B1
:102D1000003318BF012392062ED404F14302394632
:102D20003046C047013021D02368E568D9F800203B
:102D300003F00603042B08BFAD1AA36822690CBF79
:102D400025EAE57500259342C4BF9B1AED184FF0A4
:102D500000091A344D451BD10020BDE8F08701233E
:102D6000524639463046C047013003D14FF0FF305C
:102D7000BDE8F0870135C2E7E1185A1C302081F820
:102D80004300224494F8451082F843100233C4E70C
:102D90000123224639463046C0470130E6D009F1CA
:102DA0000109D7E72DE9F04317460A7E85B06E2A60
:102DB000984606460C460C9B01F1430E00F0BC8081
:102DC0001AD8632A2ED00AD8002A00F0C880582AC0
:102DD00000F08A8004F1420584F842202AE0642A47
:102DE00001D0692AF6D121681A6811F0800F23D02A
:102DF000111D1960136827E0732A00F0B48008D809
:102E00006F2A2AD0702AE5D10A6842F020020A60AF
:102E100003E0752A21D0782ADCD1782284F8452075
:102E20006E4964E01A6801F14205111D19601368CA
:102E300084F842300123A3E011F0400F02F10401B5
:102E40001960D7D0B2F90030002B03DA2D225B4293
:102E500084F8432062490A2217E02068196810F0BC
:102E6000800F03D0081D18600B6806E010F0400FBB
:102E700001F104001860F7D00B8859496F2A14BF7C
:102E80000A220822002084F843006568A560002D0E
:102E9000C0F29C80206820F004002060002B3FD10D
:102EA000002D40F095807546082A0BD12368DA077B
:102EB00008D5236962689A42DEBF302305F8013CD9
:102EC00005F1FF35AEEB05032361CDF800803B46ED
:102ED00003AA21463046FFF7EFFE013055D14FF0EF
:102EE000FF3005B0BDE8F08381F845203C492268F9
:102EF000186812F0800F00F104051D6001D003680E
:102F000002E05506FBD50388D00744BF42F02002FB
:102F100022601BB9226822F0200222601022B1E751
:102F20007546B3FBF2F002FB1033CB5C05F8013DB4
:102F300003460028F5D1B7E708681A68496910F018
:102F4000800F04D0101D18601368196007E010F09E
:102F5000400F02F1040018601368F6D019800023B6
:102F600023617546B1E71A68111D1960156862681A
:102F700000212846FDF734F908B1401B6060636802
:102F80002361002384F843309FE723692A463946AA
:102F90003046C0470130A2D023689B0707D50025E3
:102FA00004F11909E368039A9B1A9D4205DBE06866
:102FB000039B9842B8BF184693E701234A46394617
:102FC0003046C04701308AD00135EBE7002BA7D14E
:102FD0000B7884F8423004F1420565E7A9550008F2
:102FE000985500080CB430B5174B0C1E9DB01D68E9
:102FF00008DA8B232B604FF0FF301DB0BDE8304066
:1030000002B070474FF40273ADF8143014BF04F1EE
:10301000FF332346049307934FF6FF730290069005
:10302000ADF81630209A21AB02A92846019301F091
:1030300071FA431CBCBF8B232B60002CDDD0029B9C
:1030400000221A70D9E700BF1C0000202DE9F74FBD
:1030500003690C699C42804600F38280013C01F1C7
:1030600014074FEA840E00F1140657F8245056F85E
:10307000240006EB0E03013507EB0E090193B0FBAC
:10308000F5F595B34FF0000A3846B446D34650F8EC
:10309000042B93B205FB03A34FEA134A9BB2ABEB9D
:1030A0000303120CBCF800B005FB02A213FA8BF369
:1030B0004FEA124A1FFA82FBDCF80020CBEB1242E7
:1030C00002EB23429BB243EA024381454FEA224B83
:1030D0004CF8043BDBD256F80E3033B9019B043B6D
:1030E0009E421A4630D3C8F81040404601F035F8E9
:1030F000002825DB013530464FF0000E57F8042B31
:10310000D0F800C093B2AEEB0303120C13FA8CF3A9
:10311000C2EB1C4202EB23429BB243EA0243B94595
:103120004FEA224E40F8043BE8D256F8242006EB42
:1031300084032AB9043B9E421A460BD3C8F81040B8
:10314000284603B0BDE8F08F1268043B002ACAD1BC
:10315000013CC5E71268043B002AEFD1013CEAE7D5
:103160000020EEE7000000002DE9F04F57EC106B57
:1031700097B0CDE90067466A079104460A920F931B
:10318000209D3EB9102000F0CBFD60624660866055
:103190000660C660636A196851B15A684A600123C3
:1031A00093408B60204600F002FE636A00221A60A2
:1031B000019B002BBFBF01232B60019B23F0004329
:1031C000B2BF019300232B60DDF80480A84B33EAE3
:1031D00008031BD10F9A42F20F731360009B23B9AF
:1031E000C8F31300002800F07885219B53B9A14B48
:1031F00021E0A14B02930833219A1360029817B083
:10320000BDE8F08F9B4B02930333F5E7DDE90067E0
:103210000022002330463946FDF752FC814660B15A
:103220000F9A01231360219B002B00F05385934BD1
:10323000219A1360013B0293E0E714AA15A947EC19
:10324000106B204601F001F8C8F30A558246002DA4
:103250007ED0C7F3130343F07F51304641F4401151
:10326000A5F2FF35CDF848900022854BFDF70CF80C
:1032700079A3D3E90023FDF7BBF979A3D3E90023B0
:10328000FDF704F8064628460F46FDF74BF976A3EE
:10329000D3E90023FDF7ACF902460B463046394628
:1032A000FCF7F4FF06460F46FDF752FC002283466A
:1032B000002330463946FDF70DFC58B15846FDF75E
:1032C00031F902460B4630463946FDF7F9FB08B99D
:1032D0000BF1FF3BBBF1160F59D86A4901EBCB014B
:1032E000DDE90023D1E90001FDF712FC002850D0F0
:1032F0000BF1FF3B00230E93149B5D1B6B1E06938B
:1033000045BFC5F101030593002300234CBF06937D
:103310000593BBF1000F3EDB069BCDF82CB05B4460
:10332000069300230893079B092B00F2AF80052B1F
:10333000C4BF043B0793079BA3F10203CCBF002645
:103340000126032B00F2AE80DFE803F082842F77A2
:10335000159B149D1D4405F23243202B11DD009A6C
:1033600005F21240C3F1400322FA00F008FA03F319
:103370001843FDF7C7F80123A1F1F871013D12933D
:1033800072E7C3F12000009B03FA00F0F1E701238C
:10339000B1E70E90B0E7059BA3EB0B030593CBF1D0
:1033A0000003089300230B93BDE7012309930A9BB5
:1033B000002B7ADD04930393656A00226A6004217E
:1033C00001F114029A4275D96968204600F0BBFCED
:1033D000636A28601B680293039B0E2B00F2E58052
:1033E000002E00F0E2809DED007BBBF1000F8DED23
:1033F0000C7B74DD234A0BF00F034FEA2B1602EB14
:10340000C303F006D3E9008959D51F4B51EC170BC4
:10341000D3E90823FDF716FACDE9000106F00F06FF
:103420000325194F002E4CD142464B46DDE90001E1
:10343000FDF708FACDE900016AE0012309930A9B30
:103440005B4404930133012B0393B8BF0123B3E71B
:103450000023ABE70023F1E761436F63A787D23F07
:10346000B3C8608B288AC63FFB799F501344D33F73
:103470000000F07FC3550008BA55000897550008B2
:103480000000F83FF0550008C85500080126002349
:10349000079309964FF0FF330493039300221223FE
:1034A0000A9289E701230993F4E701230493039324
:1034B0001A46F5E76A6801326A60490080E702252A
:1034C000AFE7F10708D540464946D7E90023FDF7A5
:1034D0008FF801358046894676100837A2E700F05C
:1034E0009D80CBF100069F4B9F4F06F00F0203EB30
:1034F000C203D3E90023DDE90C01FDF779F8CDE93A
:103500000001361100230225002E7CD1002B91D121
:103510000E9B002B00F08480DDE900890022934B94
:1035200040464946FDF7D6FA002879D0039B002B88
:1035300076D0049B002B34DD00228D4B404649465B
:10354000FDF756F8CDE90001049E0BF1FF37013578
:103550002846FCF7E7FFDDE90023FDF749F80022E4
:10356000844BFCF793FE8046A1F15079002E5AD18E
:103570000022814BDDE90001FCF786FE42464B4606
:10358000CDE90001FDF7C4FA002840F09B824246D5
:1035900009F10043DDE90001FDF79CFA002840F045
:1035A0008F82DDE90C23CDE90023159B002BC0F2AF
:1035B0005081BBF10E0F00F34C816A4B03EBCB0340
:1035C000D3E900890A9B002B80F2DA80039B002B51
:1035D00000F3D68040F073820022674B4046494694
:1035E000FDF706F8DDE90023FDF788FA039E37466C
:1035F000002840F04A82029B029A5D1C312313701E
:103600000BF1010B45E2F20705D5D7E90023FCF7E2
:10361000EFFF013501237610083775E7022577E7BC
:103620005F46039E94E7029A4E4B32441392099AE6
:10363000711E002A48D003EBC103D3E90023002008
:103640004E49FDF7FFF842464B46FCF71DFE029D32
:1036500080468946DDE90001FDF77AFA0646FCF767
:1036600061FF02460B46DDE90001FCF70DFE303636
:1036700005F8016B42464B46CDE90001FDF72AFAF9
:10368000002865D1DDE9002300203849FCF7FCFD66
:1036900042464B46FDF71EFA002840F0BA80139BC5
:1036A0009D423FF47EAF0022314B40464946FCF735
:1036B0009FFF0022804689462D4BDDE90001FCF783
:1036C00097FFCDE90001C5E703EBC10142464B4638
:1036D000D1E90001FCF78CFFCDE91001029DDDE985
:1036E0000001FDF735FA0646FCF71CFF30360246AE
:1036F0000B46DDE90001FCF7C7FD05F8016B139BE4
:10370000AB42804689464FF0000225D11B4BDDE9D4
:103710001001FCF7BBFD02460B4640464946FDF74B
:10372000F7F9002875D1DDE9102300201349FCF7D3
:10373000ABFD02460B4640464946FDF7CBF9002853
:103740003FF42FAF15F8013C302B05F1FF3201D0CB
:10375000BB464DE01546F5E7054BFCF749FFCDE9C3
:103760000001BCE7F0550008C85500080000F03F14
:103770000000244000001C40000014400000E03F16
:10378000DDE90067029D42464B4630463946FDF76B
:1037900059F8FDF7DDF90090FCF7C4FE42464B46B0
:1037A000FCF726FF02460B4630463946FCF76CFD17
:1037B000009E039F303605F8016B029EAE1BB74298
:1037C00002460B4638D1FCF761FD06460F4602461D
:1037D0000B4640464946FDF77DF9C8B932463B469F
:1037E00040464946FDF76CF910B1009BDB070FD44A
:1037F0005146204600F0DBFA00230F9A2B700BF1A4
:1038000001031360219B002B3FF4F8AC1D60F5E42D
:103810005F4615F8012C392A05F1FF3306D1029ACB
:103820009A4207D130231370013713461A780132B8
:103830001A708DE71D46ECE70022A44BFCF7D8FE7A
:103840000022002306460F46FDF73AF900289AD0D9
:10385000CEE7099A002A00F0CD80079A012A00F3EA
:10386000AF80129A002A00F0A78003F23343089E2B
:10387000059D059A1A440592069A01211A4420468C
:10388000069200F034FB0746002D0CDD069B002B52
:1038900009DDAB42059AA8BF2B46D21A0592069ABB
:1038A000ED1AD31A0693089BF3B1099B002B00F085
:1038B000A580002E10DD39463246204600F0AEFBD2
:1038C000524601460746204600F01AFB5146804604
:1038D000204600F06CFAC246089B9A1B04D0514661
:1038E000204600F09BFB82460121204600F0FFFAB3
:1038F0000B9B002B064640F383801A460146204668
:1039000000F08CFB079B012B06467CDD4FF0000886
:10391000336906EB8303186900F09BFAC0F12000BD
:10392000069B184410F01F0000F09680C0F12003A1
:10393000042B40F38780059BC0F11C0003440593D2
:10394000069B054403440693059B002B05DD514669
:103950001A46204600F0B0FB8246069B002B05DD90
:1039600031461A46204600F0A7FB06460E9B002B68
:1039700074D03146504600F0F0FB00286EDA002388
:1039800051460A22204600F029FA099B0BF1FF3B21
:103990008246002B00F0A881002339460A222046E7
:1039A00000F01CFA049B002B074600F3C880079B1D
:1039B000022B40F3C48059E0149BC3F1360356E751
:1039C000039B5E1E089BB342BFBF089B0896F21A7A
:1039D0000B9BB6BF9B189E1B0B93039BB8BF002687
:1039E000002BB9BF059B039A059D039BBCBF9D1A85
:1039F00000233EE7089E059D099F45E7089A6EE76C
:103A0000079B012B19DC009BBBB9019BC3F313037C
:103A10009BB9019B23F000431B0D1B0583B1059B44
:103A200001330593069B013306934FF001080B9B6E
:103A3000002B7FF46DAF012072E74FF00008F6E72E
:103A40009846F4E780D0059A1C331A440592069AEA
:103A50001A441D44134676E70346F4E7039B002B04
:103A600036DC079B022B33DD039B0493049B63B975
:103A700031460522204600F0B1F90146064650467F
:103A800000F06BFB00283FF7B6AD0A9B029D6FEA82
:103A9000030B002303933146204600F088F9002FE2
:103AA0003FF4A6AE039B2BB1BB4203D01946204680
:103AB00000F07DF93946204600F079F998E60026B5
:103AC0003746E2E7BB46374695E500BF0000244095
:103AD000099B93BB039B0493029D31465046FFF71D
:103AE000B5FA00F1300905F8019B029B049AEB1A24
:103AF0009A4200F3DC80029B012AACBF9B18013381
:103B000098460023039351460122204600F0D4FA40
:103B10003146824600F021FB002800F38D8003D15E
:103B200019F0010F40F08880454615F8013C302B14
:103B300005F1FF32AFD11546F7E7039B0493002D43
:103B400005DD39462A46204600F0B6FA0746B8F1A8
:103B5000000F4CD07968204600F0F5F83A6902323F
:103B60000546920007F10C010C3000F0E1F801224B
:103B70002946204600F0A0FA009BDDF80880039754
:103B800003F001030746059331465046FFF75EFAFE
:103B90000399054600F13009504600F0DEFA3A4636
:103BA00000903146204600F0F2FAC368024603BB9B
:103BB00001460690504600F0D0FA069A0346114698
:103BC0002046069300F0F3F8069BA3B9079A92B932
:103BD000059A82B9B9F1390F29D0009B002B01DD7C
:103BE00005F1310908F1010588F8009053E73846DE
:103BF000C2E70123E3E7009A002A04DB25D1079AF4
:103C00001ABB059A0ABB002BECDD51460122204667
:103C100000F052FA3146824600F09FFA002803DC99
:103C2000E0D119F0010FDDD0B9F1390FD8D1392326
:103C300088F8003008F10108454615F8013C392B99
:103C400005F1FF323BD0013340E0002B08F10105C4
:103C500005DDB9F1390FEAD009F10109C4E7029B8A
:103C6000049A05F8019CEB1A9342A8463FF44BAF27
:103C7000514600230A22204600F0B0F8039B039926
:103C8000BB4282464FF000034FF00A02204604D1A7
:103C900000F0A4F80390074676E700F09FF80023B1
:103CA00003900A223946204600F098F8F3E751467F
:103CB00000230A22204600F091F882460DE7029B7D
:103CC000934205D1029A0BF1010B31231370E2E606
:103CD0001546B2E7094BFFF7AEBA219B002B7FF4E4
:103CE00088AA074BFFF7A7BA049B002B3FF7F4AE57
:103CF000079B022B7FF7F0AEB8E600BF9655000891
:103D0000BA550008044B1B68186A044B002808BF0A
:103D10001846F030704700BF1C00002080000020D3
:103D2000024B0146186800F03BBB00BF1C0000209E
:103D300010B5431E0A44914200D110BD11F8014B49
:103D400003F8014FF7E770B5456A04460E463DB9E2
:103D50001020FFF7E5FF6062456085600560C56083
:103D6000656AEB6883B1636ADB6853F82600B8B90B
:103D7000012101FA06F56A1D9200204600F0B4FA0E
:103D800060B1466085600EE021220421204600F0EB
:103D9000ABFA636AE860DB68002BE4D1002070BDF9
:103DA000026843F8262000230361C36070BD70B52C
:103DB000446A06460D463CB91020FFF7B1FF706219
:103DC000446084600460C4603DB1736A6A68DB6803
:103DD00053F82210296043F8225070BD2DE9F041BC
:103DE0000D691F4606460C4601F1140E0023DEF84D
:103DF000000081B202FB01710F0C000C02FB00708D
:103E000089B2013301EB00419D424FEA10474EF861
:103E1000041BECDCD7B1A3689D4212DB616830461D
:103E20000131FFF790FF2269023204F10C01804654
:103E300092000C30FFF77CFF21463046FFF7B7FFBA
:103E4000444604EB850301355F6125612046BDE8EA
:103E5000F081020C12040346B2B90304102013F0DF
:103E60007F4F04BF1B02083013F0704F04BF1B01CB
:103E7000043013F0404F04BF9B000230002B06DBE0
:103E80005B0003D5013070470020E8E72020704731
:103E9000036813F0070201460BD0DA0723D4980712
:103EA00049BF5B089B0801200B605CBF0B600220D0
:103EB000704798B2A8B91B0C102013F0FF0F04BF75
:103EC0001B0A08301A0704BF1B0904309A0704BFF5
:103ED0009B080230DA0702D45B0806D001300B6081
:103EE00070471046E9E7002070472020704710B562
:103EF0000C460121FFF727FF01224461026110BD3A
:103F00002DE9F74F14460A6923699A42B8BF0B4658
:103F10008946BCBFA1461C46D9F81070D4F810A041
:103F2000D9F80830D9F8041007EB0A069E42C8BF3A
:103F30000131FFF708FF00F1140505EB86082B4659
:103F40000022434516D304F1140209F1140102EBD7
:103F50008A0301EB87070193019C944213460CD816
:103F6000002E03DD58F8043D002B54D0066103B049
:103F7000BDE8F08F43F8042BE3E7B3F800A0043268
:103F8000BAF1000F20D0AE4689464FF0000C59F828
:103F9000044BBEF800B0A3B20AFB03B34FEA144BC4
:103FA000DEF8004063444FEA144C0AFB0BC404EBF8
:103FB00013449BB243EA04434F454FEA144C4EF876
:103FC000043BE4D8CEF800C032F8029CB9F1000FEF
:103FD0001FD02B68AE468C464FF0000ABCF800405C
:103FE000BEF802B009FB04B4A2449BB243EA0A4300
:103FF0004EF8043B5CF8043BBEF800401B0C09FB88
:10400000034303EB1A4367454FEA134AE6D8CEF859
:1040100000300435A0E7013EA2E700002DE9F84397
:10402000154612F0030206460F4607D0013A214C0E
:10403000002354F82220FFF7D1FE0746AD1035D0FB
:10404000746A3CB91020FFF76BFE706244608460B4
:104050000460C460D6F82480D8F808404CB940F217
:1040600071213046FFF743FF0023C8F808000446DB
:1040700003604FF00008EB070AD539462246304668
:10408000FFF73EFF394681463046FFF790FE4F4628
:104090006D100BD0206838B9224621463046FFF714
:1040A0002FFF2060C0F800800446E4E73846BDE8F2
:1040B000F88300BFB85600082DE9F0470C464FEAD8
:1040C000621A236949680AEB0309A3680746164682
:1040D00009F10105AB4231DB3846FFF734FE00221F
:1040E000804600F11403114652452ADB20692AEA72
:1040F000EA7A04F1140116F01F0203EB8A0301EBC4
:10410000800E22D0C2F1200C00200E689640304371
:1041100043F8040B51F8040B8E4520FA0CF0F4D848
:10412000186008B109F10205013D3846C8F8105081
:104130002146FFF73CFE4046BDE8F08701315B00B9
:10414000C8E743F822100132CEE7043B51F8042BB4
:1041500043F8042F8E45F9D8E6E703690A699B1AEC
:1041600030B50CD19200143014318418114454F835
:10417000045D51F8042D954203D005D30123184660
:1041800030BDA042F3D3FAE74FF0FF33F7E72DE954
:10419000F0470D460746114628461446FFF7DDFF57
:1041A000061E08D131463846FFF7CDFD01230361D5
:1041B0004661BDE8F087A4BF23462C4638466168B7
:1041C000A6BF1D4600260126FFF7BDFD2B69C66070
:1041D000266905F1140904F1140202EB860709EBC4
:1041E000830800F114054FF0000C52F804AB59F8A5
:1041F000044B1CFA8AF1A3B2C91A230CC3EB1A436D
:1042000003EB214389B24FEA234CC84541EA0343FB
:10421000964645F8043BE8D8BE4505D355F8043D1D
:104220008BB10661BDE8F0875EF8041B1CFA81F3D0
:104230001A1402EB11429BB243EA02434FEA224CAA
:1042400045F8043BE8E7013EE8E72DE9F7430E4671
:10425000012159EC108B1546FFF775FDC9F30A547F
:104260000746C9F3130334BB0193B8F1000F27D0FD
:1042700002A840F8088DFFF70BFE0099F0B1019AF3
:10428000C0F1200302FA03F30B43C2407B610192A9
:10429000019BBB61002B14BF022101213961C4B114
:1042A000A4F2334404443460C0F135002860384639
:1042B00003B0BDE8F08343F48013D5E77961E7E705
:1042C00001A8FFF7E5FD019B7B61012139612030E9
:1042D000E5E707EB8103A0F2324030601869FFF791
:1042E000B8FDC0EB4110E1E738B502FB01F421460F
:1042F00000F056F8054618B122460021FEF7FEF9F7
:10430000284638BD38B50546002945D051F8043C4B
:104310000C1F002BB8BFE41800F02CFA1F4A1368DA
:10432000104633B9636014602846BDE8384000F099
:1043300022BAA3420CD921686218934204BF1A68BA
:104340005B68636004BF521822600460ECE71346A8
:104350005A680AB1A242FAD919685818A0420BD17A
:1043600020680144581882421960DDD110685268F3
:104370005A6001441960D7E702D90C232B60D3E7B8
:10438000206821188A4204BF11685268626004BF25
:10439000091821605C60C7E738BD00BF1406002023
:1043A00070B5CD1C25F0030508350C2D38BF0C2544
:1043B000002D064601DBA94203D90C2333600020FF
:1043C00070BD00F0D7F9234A1468214691B9224CF8
:1043D00023681BB9304600F091F920602946304629
:1043E00000F08CF9431C26D10C233360304600F0DA
:1043F000C2F9E4E70B685B1B1AD40B2B0FD90B60D7
:10440000CD50CC18304600F0B6F904F10B00231D56
:1044100020F00700C31A1BD05A42E25070BD8C42F4
:104420000DBF63684B686360136018BF0C46E9E713
:104430000C464968CAE7C41C24F00304A04205D016
:10444000211A304600F05AF90130CDD02560D9E765
:1044500070BD00BF14060020180600202DE9F047AB
:104460008E689E4282460C469146984635D88A8987
:1044700012F4906F31D0256809696F1A65690223BB
:1044800005EB450595FBF3F508F101033B449D421F
:1044900038BF1D46530531D52946FFF781FF064633
:1044A00050B90C23CAF80030A38943F04003A3811C
:1044B0004FF0FF30BDE8F0873A462169FFF738FC3E
:1044C000A38923F4906343F08003A381266165618F
:1044D0003E44ED1B2660A5604646464528BF46463D
:1044E00032464946206800F02BF9A3689B1BA36065
:1044F00023681E4426600020BDE8F0872A4600F0AD
:104500003BF906460028E1D121695046FFF7FAFE43
:10451000C7E700002DE9F04F9DB0804603938B89DB
:104520001C060D4616460FD50B696BB94021FFF7E7
:1045300037FF2860286128B90C23C8F800304FF0F5
:10454000FF30C5E040236B610023099320238DF8E1
:10455000293030238DF82A304FF0010B37463C4686
:1045600014F8013B002B3CD1B7EB060A0BD05346A5
:10457000324629464046FFF771FF013000F0A38024
:10458000099B534409933B78002B00F09C80002347
:104590004FF0FF3204930793059206938DF8533042
:1045A0001A93052221785048FBF71AFE671C049BDA
:1045B000D8B9D90644BF20228DF853201A0744BF2A
:1045C0002B228DF8532022782A2A16D0079A002110
:1045D0000A20274601343B78303B092B51D9C9B119
:1045E00011E0252BC0D02746B9E73F4A801A0BFAC5
:1045F00000F0184304903C46D3E7039A111D12685B
:104600000391002A01DB079204E0524243F00203C7
:10461000079204933B782E2B0ED17B782A2B07F13F
:10462000010132D1039B1A1D1B680392002BB8BFF6
:104630004FF0FF33023705932C4C39780322204684
:10464000FBF7CEFD38B14023001B03FA00F0049BBA
:10465000034304930137397825488DF82810062242
:104660007E1CFBF7BDFD002835D0224BFBB9039B18
:10467000073323F0070308330393099B4B44099343
:104680006CE700FB02320121A3E7002305931846E3
:104690000A240F4601313A78303A092A03D9002B0F
:1046A000CAD00590C8E704FB00200123F1E703AB63
:1046B00000932A46104B04A94046FEF7BDF8B0F11E
:1046C000FF3F8146D9D1AB895B063FF538AF0998EA
:1046D0001DB0BDE8F08F03AB00932A46064B04A93A
:1046E0004046FEF75FFBEAE7C4560008CA560008DA
:1046F000CE560008392800085D44000838B5064C3D
:104700000023054608462360FDF7B4FF431C02D191
:10471000236803B12B6038BDB006002082B001B918
:1047200001A942B14BB113780B601278101C18BF6D
:10473000012002B070471046FBE76FF00100F8E778
:10474000884210B501EB020303D8421E99420CD1F6
:1047500010BD9842F9D28118D21AD34200D110BDAF
:1047600013F8014D01F8014DF7E711F8014B02F87C
:10477000014FEBE770477047F8B5074614460E4601
:1047800021B91146BDE8F840FFF70ABE22B9FFF78C
:10479000B9FD25462846F8BD00F021F884420FD91E
:1047A00021463846FFF7FCFD05460028F2D0314689
:1047B0002246FFF7BDFA31463846FFF7A3FDE9E789
:1047C0003546E7E749B1FF2A85BF8A2303600A70AF
:1047D0004FF0FF3098BF012070470846704751F8EE
:1047E000040C0028A0F10400BCBF0B58C01870478F
:1047F000F8B500BFF8BC08BC9E467047F8B500BFCE
:08480000F8BC08BC9E4670479D
:10480800252E3166204D487A000000000000000087
:104818000001020304060708090000000001020362
:10482800040000000000000000000000000000007C
:104838000000000000000000000000000000000070
:104848000000000000000000000C000C000C000C30
:10485800000C000C000C000C000C000C000C0000FC
:10486800000C000C0000000000000000001B001BF2
:10487800001B001B001B00000000000000000000DF
:104888000000000000000000000000000000000020
:104898008019801980198019C07FC07F8019003362
:1048A800C07FC07F003300330033003300000000B6
:1048B80000000000001E003F807580650074003C09
:1048C800001E00078005806580658075003F001E1A
:1048D8000004000400000000007000D840D8C0D8D0
:1048E80080D900730006000C801BC036C066C04625
:1048F800C00680030000000000000000001E003F0A
:10490800003300330033001E000CC03CC0668063D7
:1049180080618063C03E801C000000000000000031
:10492800000C000C000C000C000C00000000000043
:10493800000000000000000000000000000000006F
:104948000000800000010003000600060004000CBF
:10495800000C000C000C000C000C00040006000603
:10496800000300018000002000100018000C000C5B
:104978000004000600060006000600060006000403
:10498800000C000C0018001000200000000C002D86
:10499800003F001E0033000000000000000000007F
:1049A80000000000000000000000000000000000FF
:1049B80000000000000C000C000C000CC0FFC0FF41
:1049C800000C000C000C000C0000000000000000AF
:1049D80000000000000000000000000000000000CF
:1049E800000000000000000000000000000C000CA7
:1049F800000400040008000000000000000000009F
:104A08000000000000000000001E001E0000000062
:104A1800000000000000000000000000000000008E
:104A2800000000000000000000000000000000007E
:104A380000000000000C000C000000000000000056
:104A48000003000300030006000600060006000C31
:104A5800000C000C000C00180018001800000000E2
:104A680000000000001E003F00338061806180610B
:104A7800806D806D8061806180610033003F001E21
:104A880000000000000000000006000E001E0036B6
:104A980000260006000600060006000600060006BE
:104AA800000600060000000000000000001E003F95
:104AB800807380618061800100030006000C00188B
:104AC80000300060807F807F000000000000000050
:104AD800001C003E006300630003000E000E00038C
:104AE8008001800180618073003F001E000000008B
:104AF800000000000006000E000E001E001E00163A
:104B0800003600360066807F807F000600060006BB
:104B18000000000000000000007F007F00600060CF
:104B28000060006E007F8063800180018061807377
:104B3800003F001E0000000000000000001E003FB3
:104B4800803380610060006E007F807380618061C7
:104B580080618033003F001E00000000000000005C
:104B6800807F807F80010003000300060006000CA0
:104B7800000C000C000800180018001800000000C5
:104B880000000000001E003F8063806180610021FA
:104B9800001E003F8061806180618061003F001ECF
:104BA8000000000000000000001E003F007380614C
:104BB800806180618073803F801D80018061007307
:104BC800003F001E00000000000000000000000080
:104BD80000000000000C000C0000000000000000B5
:104BE80000000000000C000C0000000000000000A5
:104BF80000000000000000000000000C000C000095
:104C08000000000000000000000C000C000400047C
:104C18000008000000000000000080008003000E73
:104C2800003800600038000E80038000000000009B
:104C3800000000000000000000000000000000006C
:104C4800807F807F00000000807F807F0000000060
:104C5800000000000000000000000000000000004C
:104C6800000000400070001C000780010007001CC5
:104C7800007000400000000000000000000000007C
:104C8800001F803FC071C060C000C00180030007E2
:104C9800000E000C000C0000000C000C00000000CE
:104CA80000000000001E003F803180718063806F2B
:104CB800806D806D806F806700600032003E001C50
:104CC8000000000000000000000E000E001B001B8A
:104CD800001B001B80318031803F803F8031C060E5
:104CE800C060C0600000000000000000007C007E82
:104CF8000063006300630063007E007E00638061E0
:104D080080618063007F007E0000000000000000DA
:104D1800001E003F8031806100600060006000601C
:104D28000060006080618031003F001E00000000CC
:104D380000000000007C007F006380638061806168
:104D4800806180618061806100630063007E007C17
:104D58000000000000000000807F807F006000608D
:104D680000600060007F007F0060006000600060FD
:104D7800807F807F0000000000000000807F807F2F
:104D88000060006000600060007F007F00600060DD
:104D9800006000600060006000000000000000008B
:104DA800001E003F80318061006000600060806309
:104DB8008063806180618031803F001E00000000B8
:104DC8000000000080618061806180618061806195
:104DD800807F807F80618061806180618061806187
:104DE8000000000000000000003F003F000C000C25
:104DF800000C000C000C000C000C000C000C000C4B
:104E0800003F003F0000000000000000800180011A
:104E18008001800180018001800180018001806122
:104E280080618073003F001E000000000000000049
:104E3800C0608061006300660066006C0078007CDA
:104E480000660066006380618061C0600000000049
:104E5800000000000060006000600060006000600A
:104E6800006000600060006000600060807F807FFC
:104E78000000000000000000C071C071C07BC07A53
:104E8800C06AC06AC06EC064C060C060C060C060F4
:104E9800C060C060000000000000000080718071E8
:104EA800807980798079806D806D806D806580677C
:104EB8008067806780638063000000000000000056
:104EC800001E003F003380618061806180618061E5
:104ED8008061806180610033003F001E0000000097
:104EE80000000000007E007F806380618061806137
:104EF8008063007F007E00600060006000600060EA
:104F08000000000000000000001E003F0033806128
:104F18008061806180618061806180658067003325
:104F2800803F401E0000000000000000007E007F5F
:104F38008063806180618063007F007E006600631B
:104F4800006380618061C060000000000000000014
:104F5800000E001F8031803100300038001E00072D
:104F68008003806180618031003F001E00000000E6
:104F780000000000C0FFC0FF000C000C000C000C7B
:104F8800000C000C000C000C000C000C000C000CB9
:104F98000000000000000000806180618061806185
:104FA80080618061806180618061806180618073DF
:104FB800003F001E0000000000000000C060C0604C
:104FC800C060803180318031001B001B001B001B3A
:104FD800000E000E000E000400000000000000009B
:104FE800C0C0C0C0C0C0C0C0C0C0C0CC804C804C15
:104FF800805E805280528073806180610000000072
:1050080000000000C0C0806080610033003B001ECB
:10501800000C000C001E001F003B80718061C0C0A6
:105028000000000000000000C0C080618061003303
:105038000033001E001E000C000C000C000C000CBD
:10504800000C000C0000000000000000803F803FC2
:105058008001000300030006000C000C0018001873
:1050680000300060807F807F000000000000000F9B
:10507800000F000C000C000C000C000C000C000CC5
:10508800000C000C000C000C000C000C000C000FB5
:10509800000F0000001800180018000C000C000C8D
:1050A800000C0006000600060006000300030003CB
:1050B800000000000000001E001E0006000600069A
:1050C80000060006000600060006000600060006A8
:1050D800000600060006001E001E0000000C000C62
:1050E800001E001200330033806180610000000060
:1050F80000000000000000000000000000000000A8
:105108000000000000000000000000000000000097
:105118000000000000000000000000000000E0FFA8
:105128000000000000380018000C0000000000001B
:105138000000000000000000000000000000000067
:105148000000000000000000000000000000000057
:10515800001F803F80618001801F803F80618063E5
:10516800807FC03800000000000000000060006080
:1051780000600060006E007F8073806180618061E4
:1051880080618073007F006E000000000000000056
:105198000000000000000000001E003F80738061D6
:1051A8000060006080618073003F001E0000000006
:1051B800000000008001800180018001801D803F87
:1051C800807380618061806180618073803F801D11
:1051D80000000000000000000000000000000000C7
:1051E800001E003F00738061807F807F00608071B7
:1051F800003F001E0000000000000000C007C00FB4
:10520800000C000C807F807F000C000C000C000C50
:10521800000C000C000C000C000000000000000056
:10522800000000000000801D803F80738061806165
:10523800806180618073803F801D80018063007F72
:10524800003E00000060006000600060006F807F2A
:10525800807180618061806180618061806180612E
:10526800000000000000000000060006000000002A
:10527800003E003E00060006000600060006000686
:1052880000060006000000000000000600060000FE
:105298000000003E003E000600060006000600066C
:1052A80000060006000600060046007E003C0000DE
:1052B8000060006000600060806100630066006C50
:1052C800007C0076006300638061C060000000001D
:1052D80000000000003E003E000600060006000632
:1052E8000006000600060006000600060006000686
:1052F80000000000000000000000000000000000A6
:1053080080DDC0FFC0CEC0CCC0CCC0CCC0CCC0CC2F
:10531800C0CCC0CC0000000000000000000000006D
:1053280000000000006F807F807180618061806173
:1053380080618061806180610000000000000000E1
:105348000000000000000000001E003F8073806124
:105358008061806180618073003F001E0000000052
:1053680000000000000000000000006E007F807355
:1053780080618061806180618073007F006E006061
:105388000060006000600000000000000000801D58
:10539800803F807380618061806180618073803F1D
:1053A800801D800180018001800100000000000054
:1053B800000000000067803F0039003000300030F6
:1053C8000030003000300030000000000000000015
:1053D8000000000000000000001E803F80610060A7
:1053E800007F803F80018061007F001E0000000078
:1053F800000000000000000800180018007F007F6F
:10540800001800180018001800180018801F800FD6
:105418000000000000000000000000000000000084
:10542800806180618061806180618061806180636A
:10543800807F803D000000000000000000000000A8
:1054480000000000C060803180318031001B001BEB
:10545800001B000E000E0006000000000000000007
:10546800000000000000000080DD80DD80DD0055C8
:105478000055005500770077002200220000000048
:105488000000000000000000000000008061003300
:105498000033001E000C000C001E00330033806136
:1054A8000000000000000000000000000000806113
:1054B8008061803100330033001B001B001B000E8D
:1054C800000E000E001C007C0070000000000000B0
:1054D80000000000C07FC07F800100030006000CB0
:1054E80000180030C07FC07F00000000000080036B
:1054F800800700060006000600060006000E001CD5
:10550800001C000E000600060006000600068007C4
:1055180080030006000600060006000600060006D6
:105528000006000600060006000600060006000643
:105538000006000600060038003C000C000C000CB9
:10554800000C000C000E00070007000E000C000CF9
:10555800000C000C000C003C0038000000000000AB
:1055680000000000000000008038807F0047000035
:105578000000000000000000000000000000494E8C
:105588004600696E66004E414E006E616E00300046
:105598003031323334353637383941424344454661
:1055A80000303132333435363738396162636465F7
:1055B8006600496E66696E697479004E614E000036
:1055C8000080E03779C34143176E05B5B5B89346F7
:1055D800F5F93FE9034F384D321D30F94877825AC3
:1055E8003CBF737FDD4F1575000000000000F03FE1
:1055F80000000000000024400000000000005940A6
:105608000000000000408F40000000000088C340F8
:1056180000000000006AF8400000000080842E416D
:1056280000000000D01263410000000084D79741B9
:105638000000000065CDCD41000000205FA00242BF
:10564800000000E876483742000000A2941A6D4234
:10565800000040E59C30A2420000901EC4BCD64227
:1056680000003426F56B0C430080E03779C34143D2
:1056780000A0D8855734764300C84E676DC1AB4348
:10568800003D9160E458E143408CB5781DAF154466
:1056980050EFE2D6E41A4B4492D54D06CFF0804441
:1056A800F64AE1C7022DB544B49DD9794378EA4456
:1056B80005000000190000007D000000232D302B9C
:1056C8002000686C4C0065666745464700430050FB
:1056D8004F534958002E0000202020202020202051
:1056E800202828282828202020202020202020208A
:1056F80020202020202020208810101010101010AA
:1057080010101010101010100404040404040404F1
:105718000404101010101010104141414141410182
:105728000101010101010101010101010101010161
:105738000101011010101010104242424242420270
:105748000202020202020202020202020202020231
:1057580002020210101010200000000000000000DB
:105768000000000000000000000000000000000031
:105778000000000000000000000000000000000021
:105788000000000000000000000000000000000011
:105798000000000000000000000000000000000001
:1057A80000000000000000000000000000000000F1
:1057B80000000000000000000000000000000000E1
:1057C80000000000000000000000000000000000D1
:0857D8000000000000000000C9
:0857E00090B4FF7F01000000FE
:0457E800B5010008FF
:0457EC00910100081F
:1057F00066666666660659400024F4000B120000D7
:105800002A480008010000001000000020000020CD
:105810000000000000000000000000000000000088
:105820000000000000000000000000000000000078
:105830000000000000000000000000000000000068
:105840000000000000000000000000000000000058
:105850000000000000000000000000000000000048
:105860000000000000000000000000000000000038
:1058700043000000000000000000000000000000E5
:105880000000000000000000000000000000000018
:1058900043000000000000000000000000000000C5
:1058A00000000000000000000000000000000000F8
:1058B00043000000000000000000000000000000A5
:1058C00000000000000000000000000000000000D8
:1058D0004300000000000000000000000000000085
:1058E00000000000000000000000000000000000B8
:1058F0004300000000000000000000000000000065
:105900000000000000000000000000000000000097
:105910004300000000000000000000000000000044
:105920000000000000000000000000000000000077
:105930004300000000000000000000000000000024
:105940000000000000000000000000000000000057
:10595000C54700081D47000800000000DF5600088A
:10596000DD560008C9560008C9560008C956000887
:10597000C9560008C9560008C9560008C95600088B
:10598000C9560008C9560008FFFFFFFFFFFFFFFFD1
:10599000FFFFFFFFFFFF00000100415343494900A3
:1059A00000000000000000000000000000000000F7
:1059B000000000000000000000004153434949007E
:1059C00000000000000000000000000000000000D7
:0C59D000000000000000000000000000CB
:0400000508002621A8
:00000001FF
